:020000040800F2
:1000000008060020C1010008DB1300088D1200085B
:10001000D9130008CD020008DD140008000000001C
:10002000000000000000000000000000FF130008B6
:10003000E902000800000000FD1300080114000898
:10004000DB010008DB010008DB010008DB01000820
:10005000DB010008DB010008DB010008DB01000810
:10006000DB010008DB010008DB010008DB01000800
:10007000DB010008DB010008DB010008DB010008F0
:10008000DB010008DB010008DB010008DD020008DD
:10009000D1020008DB010008DB010008DB010008D9
:1000A000DB010008DB010008DB010008DB010008C0
:1000B000DB010008DB010008DB010008DB010008B0
:1000C000DB010008DB010008DB010008DB010008A0
:1000D000DB010008DB010008DB010008DB01000890
:1000E000DB010008DB010008DB010008DB01000880
:1000F000DB010008DB010008DB010008DB01000870
:10010000DB010008DB010008DB010008DB0100085F
:10011000DB010008DB010008DB010008DB0100084F
:10012000DB010008DB010008DB010008DB0100083F
:10013000DB010008DB010008DB010008DB0100082F
:10014000DB010008DB010008DB010008DB0100081F
:10015000DB010008DB010008DB010008DB0100080F
:10016000DB010008DB010008DB010008DB010008FF
:10017000DB010008DB010008DB01000800000000D3
:10018000DB010008DB010008DB010008DB010008DF
:10019000DB010008DB010008DB010008DB010008CF
:1001A0000000000000000000DB010008DFF80CD0B8
:1001B00000F07AF8004800476115000808060020A2
:1001C0000648804706480047FEE7FEE7FEE7FEE7F1
:1001D000FEE7FEE7FEE7FEE7FEE7FEE7891400081C
:1001E000AD0100082DE9F05F0546002092469B46D0
:1001F00088460646814640241BE02846414647463D
:10020000224600F041F853465A46C01A914110D395
:1002100011461846224600F028F82D1A67EB01080F
:100220004F4622460120002100F01FF817EB00097D
:100230004E41201EA4F10104DFDC484631462A4627
:100240004346BDE8F09FD2B201E000F8012B491E01
:10025000FBD270470022F6E710B513460A46044663
:100260001946FFF7F0FF204610BD202A04DB203A94
:1002700000FA02F1002070479140C2F1200320FAF9
:1002800003F3194390407047202A04DB203A21FAF7
:1002900002F00021704721FA02F3D040C2F120029F
:1002A0009140084319467047064C074D06E0E06848
:1002B00040F0010394E8070098471034AC42F6D3AD
:1002C000FFF778FFC4170008E4170008FEE70000F6
:1002D000014800F087B9000088010020014800F0C3
:1002E00081B90000880100207047704790F82020F5
:1002F000012A09D090F82020022A05D0416A41F451
:100300008021416201207047006842690A434261CE
:1003100000207047F0B590F82040012C07D090F8ED
:100320002040022C03D0416A41F4802153E004684C
:10033000A5686D0105D4A5682D0102D4A568ED005E
:1003400046D5A4680125C4F30164A5401D608D68ED
:100350004FF4C0739DB1CE6835434E6845EAC6057B
:10036000066803EB0417F5514FF4C275076805EBF7
:1003700004150E697E51097D012905D009E00E881A
:10038000CD6845EA4655EBE701684E5946F480765C
:100390004E511179D2F805504FF4C67641EA052145
:1003A000056806EB0416A9511178D2F801204FF424
:1003B000C47541EA0221026805EB04155151006839
:1003C00003EB0411425842F0010242500020F0BDFC
:1003D000416A41F4001141620120F0BD10B590F86E
:1003E0002020012A09D090F82020022A05D0416A55
:1003F00041F480214162012010BD3A48D0F800222A
:1004000042F00102C0F80022D0F8002222F47C520F
:10041000C0F80022D0F800224B6A42EA0322C0F85A
:1004200000220B7D01229A40D0F81C329343C0F881
:100430001C32CB69B3B9D0F80C329343C0F80C32FC
:100440008C894B6864F31F434C6900EBC404C4F807
:1004500040320C890B6864F31F434C6900EBC40401
:10046000C4F84432CB69012B16D1D0F80C321343B7
:10047000C0F80C320C884B6864F31F434C6900EBE6
:10048000C404C4F840320C89CB6864F31F434C6940
:1004900000EBC404C4F844328B69002BD0F804325A
:1004A0000ED01343C0F804320B69002BD0F814327D
:1004B00008D01343C0F81432096A012904D008E0B7
:1004C0009343EFE79343F5E7D0F81C121143C0F8CC
:1004D0001C12D0F8001221F00101C0F80012002017
:1004E00010BD000000640040704730B590F8204017
:1004F000012C07D090F82040022C03D0416A41F42F
:10050000802109E011B1012909D00CE00468E468F8
:1005100007E0416A41F400114162012030BD0468E6
:100520002469A407F5D04FF4D874056804EB0114CE
:100530002D5915F00405956005682D5942D0ED0838
:10054000556005682C59C4F34004D4604FF4DA7444
:10055000056804EB01142D5905F00F0515610568B8
:100560002D59C5F30725956105682C59240C546154
:100570004FF4DC72046802EB0112A4581C7004688A
:10058000A458240A5C700468A458240C9C70046865
:10059000A258120EDA704FF4DE72046802EB0112F8
:1005A000A4581C710468A458240A5C710468A458F7
:1005B000240C9C710468A258120EDA7129B1012929
:1005C00009D00DE06D0D1560BBE70068C16841F012
:1005D0002001C16004E00068016941F0200101616F
:1005E000002030BD2DE9F05F054600680024466913
:1005F000D0F804908768D0F80CB0D0F810A0D0F8EC
:100600001880F10748D0F90714D001218160B8079C
:1006100003D5284600F027FA0CE0780702D54FF4FE
:10062000006407E0380702D54FF4805402E0284602
:1006300000F018FAF80516D529684FF48070886024
:10064000B80503D5284600F010FA0CE0780502D56D
:1006500044F4005407E0380502D544F4804402E035
:10066000284600F001FAF80316D529684FF48030C7
:100670008860B80303D5284600F0F9F90CE0780348
:1006800002D544F4004407E0380302D544F4803432
:1006900002E0284600F0EAF9300707D55FEACB60B0
:1006A00004D52968102044F40074C86070074FF026
:1006B000080707D55FEA0B7004D52868C76028468D
:1006C00000F060F9B00706D52868C068800702D03E
:1006D000284600F059F9700607D55FEACA6004D5CC
:1006E0002968102044F480640861B00607D55FEAE9
:1006F0000A7004D528680761284600F083F9F006DF
:1007000006D528680069800702D0284600F07BF9EA
:10071000B00308D55FEAC96005D529681020486094
:10072000284600F071F9F00307D55FEA097004D597
:1007300028684760284600F09BF9300446D55FEAF8
:10074000497040D5F00504D55FEAC87001D044F087
:100750000104B00504D55FEA887001D544F00204B5
:10076000700504D55FEA487001D544F004043005F3
:1007700029D518F0700F26D008F07000402815D049
:1007800006DC102809D020280AD0302816D10AE02B
:1007900050280ED0602811D10EE044F008040DE07E
:1007A00044F010040AE044F0200407E044F0400460
:1007B00004E044F0800401E044F480742868816916
:1007C00021F070018161296804204860002C05D067
:1007D000686A204368622846FFF786FEBDE8F09FFE
:1007E00070B5040003D094F8200010B104E001209B
:1007F00070BD204600F082F82068016821F00201F7
:10080000016000F039FA0546052604E000F034FAEC
:10081000401B0A2811D8206840688007F6D4206859
:10082000016841F00101016000F026FA05460BE085
:1008300000F022FA401B0A2806D9606A40F4003012
:10084000606284F82060D2E720684068C007EFD07B
:10085000207E0128206801683DD021F080010160E0
:10086000607E01282068016838D021F040010160D5
:10087000A07E01282068016833D021F020010160AA
:10088000E07E0128206801682ED041F0100101604F
:10089000207F01282068016829D021F0080101602B
:1008A000607F01282068016824D021F004010160E4
:1008B000D4E902010843D4E90412114308436168F2
:1008C000491E08432168C86100206062012084F845
:1008D0002000002070BD41F08001C0E741F04001E0
:1008E000C5E741F02001CAE721F01001CFE741F050
:1008F0000801D4E741F00401D9E7000010B586B043
:10090000044614216846FFF7A5FC1B49206888426D
:100910002FD11A480021026842F00072026000687C
:1009200000F00070059015481038026842F0080287
:1009300002600068022200F0080005900320CDE963
:100940000210CDE900020920049069460C4800F02D
:10095000A3F800221146132000F0FAF9132000F04A
:10096000EBF900221146142000F0F2F9142000F0F7
:10097000E3F906B010BD00000064004040380240BA
:10098000000C02407047000000B51A4A016889B0A7
:10099000914204D107AB6A460021FFF7A6FD0099FA
:1009A0001548A1F20521072917D20288C9B2521CA5
:1009B00001EB410302801149BDF81C2001EB8301CA
:1009C00052BA8A80BDF81E2052BACA80BDF82020D3
:1009D00052BA0A819DF822208A720188B1F5FA7F05
:1009E00006D1002101800648016881F48041016040
:1009F00009B000BD006400401A000020B0010020D2
:100A000014140240704770477047000070B50446E8
:100A100090F82000012804D0606A40F40020606251
:100A200018E0022084F820002068016821F001010C
:100A3000016000F021F905460EE000BF00F01CF94E
:100A4000401B0A2808D9606A40F400306062052023
:100A500084F82000012070BD20684068C007EDD1F7
:100A6000606270BD7047704770477047704770474D
:100A70007047000070B5044600F0FEF80546601CA3
:100A800002D004480078044400F0F6F8401BA0426D
:100A9000FAD370BD080000202DE9F84FDFF890B1BF
:100AA00000224FF001084FF0030A4FF00F090BF13D
:100AB000040E00BF0B6808FA02F42340A3426ED173
:100AC0004D68022D01D0122D0ED1D50800EB850CFA
:100AD000DCF820505607F70E09FA07F6B5430E6901
:100AE000BE402E43CCF82060066855000F790AFA04
:100AF00005FC07F0030726EA0C06AF403743076002
:100B00004E68012E05D0022E03D0112E01D0122ED8
:100B10000ED18768CE6827EA0C07AE403E43866058
:100B20004668A6430C79C4F30014944034434460EF
:100B3000C4688E6824EA0C04AE402643C6604C6844
:100B4000E4006FD53B4C256845F48045256024685A
:100B500022F0030504F480440094374C2E19D6F893
:100B6000084895072F0F09FA07F5AC43334DA84203
:100B700001D100252EE0324DA84201D1012529E006
:100B8000304DA84201D1022524E02F4DA84201D1C9
:100B900003251FE02D4DA84202D104251AE041E0B3
:100BA0002B4DA84201D1052514E02A4DA84201D1C0
:100BB00006250FE0284DA84201D107250AE0274D60
:100BC000A84201D1082505E0254DA84201D10925FB
:100BD00000E00A25BD402543C6F80858DBF8004070
:100BE0005D464E689C43F60300D51C432C60DEF83E
:100BF000004075464E689C43B60300D51C432C60EC
:100C00000B4D08352C684E689C43F60200D51C43FA
:100C10002C60074D0C352C684E689C43B60200D5FD
:100C20001C432C60521C102AFFF444AFBDE8F88F1F
:100C3000003C0140443802400030014000000240C6
:100C40000004024000080240000C02400010024074
:100C50000014024000180240001C02400020024024
:100C6000002402400069084000D0012070470AB10A
:100C7000816170470904FBE7014880687047000004
:100C800008000020024881680278114481607047A2
:100C9000080000200B4810B5016841F400710160A4
:100CA000016841F480610160016841F48071016074
:100CB000032000F06DF8002000F006F800F024F8A2
:100CC000002010BD003C024070B50D4D04464FF4AD
:100CD0007A712878B1FBF0F00A490968B1FBF0F0AD
:100CE00000F0C0FA48B9102C07D200222146501E4D
:100CF00000F02EF800206C6070BD012070BD000077
:100D000008000020140000200A4808B5016841F4DA
:100D100080410160006800F4804000900548001F99
:100D2000016841F080510160006800F0805000903F
:100D300008BD00004438024000F01F02012191402C
:100D40004009800000F1E020C0F800117047000069
:100D5000F0B40E4B1B680C46C3F30223C3F1070526
:100D6000042D00D90425191D072901D2002300E014
:100D7000DB1E012606FA05F1491E214099409E40DE
:100D8000761E16403143F0BC00F028BB0CED00E0AD
:100D9000064900F0070208684FF6FF03184040EAD2
:100DA0000220034A10430860704700000CED00E089
:100DB0000000FA052DE9F0470E46050065D0DFF882
:100DC0001481D8F80000F7B200F00F00B04207D24B
:100DD00088F80070D8F8000000F00F00B04254D13D
:100DE00028683D4C810712D5400703D5206840F4A0
:100DF000E05020602878000703D5206840F4604068
:100E000020602068A96820F0F0000843206028785E
:100E1000C0072DD0304968680839012812D002284F
:100E200013D0032811D00968890700292DDA216819
:100E300021F0030101432160FFF71EFF814641F2CB
:100E4000883A0EE009688903EFE709688901ECE751
:100E5000FFF712FFA0EB0901514502D90320BDE8BD
:100E6000F0872068696800F00C00B0EB810FEFD1CB
:100E7000D8F80010404601F00F01B14207D90770C1
:100E8000006800F00F00B04201D00120E7E72878A9
:100E9000400705D52068E96820F4E0500843206049
:100EA0002878000706D52068296920F4604040EAC8
:100EB000C100206000F016F82168084AC1F3031150
:100EC000515CC840064908600020FFF7FDFE002085
:100ED000C5E70000003C024008380240B417000893
:100EE00014000020154810B5006810F00C021448DA
:100EF00013D01449042A0FD0082A0ED10F4C241FF6
:100F00002268236802F03F025B0207D52068C0F325
:100F10008810A0FB010106E0084610BD2168C1F35E
:100F20008811A1FB00010023FFF75CF92168C1F3E0
:100F30000141491C4900B0FBF1F010BD08380240E6
:100F40000024F400001BB7002DE9F84F050076D00F
:100F50002878DFF8F8B2BE4CC00749D0DBF80010A3
:100F60005846C1F38101012908D00068C0F381000F
:100F700002280AD1201D0068400206D5206880039F
:100F800036D568680028E2D032E06868B0F5803F66
:100F900010D0B0F5A02F206810D020F48030206051
:100FA000206820F4802020606868A0B1FFF764FE0C
:100FB00006460CE0206840F48030F4E740F48020DE
:100FC0002060F7E7FFF758FE801B642873D820687D
:100FD0008003F7D50CE0FFF74FFE064605E000BFA3
:100FE000FFF74AFE801B6428F0D820688003F7D4FE
:100FF0002878DFF8608280074FF000093ED5DBF8E3
:101000000010584611F00C0F09D00068C0F38100A1
:1010100002280BD18D48001F0068400206D42068CA
:10102000800715D5E868012809D111E0E868B8B152
:101030000120C8F80000FFF71FFE064605E002E1A8
:10104000FFF71AFE801B0228C0D820688007F7D55A
:101050002068296920F0F80040EAC10020600DE016
:10106000C8F80090FFF708FE064604E0FFF704FE0C
:10107000801B02281FD820688007F7D42878000733
:1010800022D5724E744869696C3671B101210160D4
:10109000FFF7F2FD074604E0FFF7EEFDC01B022854
:1010A00009D830688007F7D50EE0C0F80090FFF748
:1010B000E3FD074605E083E0FFF7DEFDC01B0228E5
:1010C0007ED830688007F7D42878400768D5DFF8E5
:1010D0007CA100270AF1380ADAF80000C0000BD41E
:1010E000DAF8001041F08051CAF80010DAF8000078
:1010F000012700F080500090584E3068C00510D491
:10110000306840F480703060FFF7B6FD009005E075
:10111000FFF7B2FD0099401A022851D83068C00587
:10112000F6D54A4EA868683601280FD005283068E1
:1011300010D020F001003060306820F004003060F2
:10114000A868B8B1FFF798FD00900FE0306840F054
:101150000100F4E740F004003060F7E7FFF78CFD92
:101160000099411A41F28830814264D83068800782
:10117000F4D50EE0FFF780FD009007E0FFF77CFD5F
:101180000099411A41F28830814254D83068800772
:10119000F4D42FB1DAF8001021F08051CAF8001011
:1011A000A869C0B3DBF80010C1F3810102294AD05D
:1011B0000228484607D0C8F86000FFF75DFD00E050
:1011C00039E005463AE04746C8F86000FFF754FDAD
:1011D000064604E0FFF750FD801B02282BD820684C
:1011E0008001F7D4D5E907010843A96A1C4A4908D8
:1011F00002EB01416A6A41EA8211084395F82C101A
:1012000040EA01611148001F016001203866FFF7C4
:1012100033FD054605E014E0FFF72EFD401B0228D4
:1012200009D820688001F7D50BE000BFFFF724FD47
:10123000401B022802D90320BDE8F88F20688001F6
:10124000F4D40020F8E70120F6E700000838024057
:101250000038024000004742800E474200700040C4
:101260000000FFFF10B5401EB0F1807F01D30120C8
:1012700010BD4FF0E02460610F21601700F0AEF860
:101280000020A06107202061002010BDFEE70000C3
:10129000104810B50E4901600321416000214FF450
:1012A00000228160C0E903124FF4401242610176CE
:1012B000012242768176C17601774177FFF790FA75
:1012C000002803D0BDE81040FFF70FB810BD0000A4
:1012D00000640040880100202DE9F04786B0142109
:1012E0006846FEF7B7FF37480024016841F008015F
:1012F0000160016801F008010591016841F00101F8
:101300000160016801F001010591016841F080016F
:101310000160016801F080010591016841F002015E
:101320000160016801F002010591016841F01001BE
:101330000160016801F010010591016841F0200190
:1013400001600068DFF8808000F020000590002236
:101350003C214046FFF78BFCDFF870904FF40066AD
:10136000002231464846FFF782FCDFF864A0F70010
:10137000002239465046FFF77AFC3C2000900125B8
:10138000CDE90154694640460394FFF785FB0420EC
:10139000CDE9000469460F480294FFF77DFB0096F3
:1013A000CDE90154694648460394FFF775FB009761
:1013B000CDE90154694650460394FFF76DFB06B032
:1013C000BDE8F08730380240001C024000100240A7
:1013D0000014024000040240FEE770470907090EAE
:1013E000002806DA00F00F0000F1E02080F8141D5C
:1013F000704700F1E02080F8001470477047704794
:10140000FFF740BC30B593B030216846FEF722FFAD
:1014100014210CA8FEF71EFF19480025016841F0B1
:1014200080510160006800F08050119015480168FB
:1014300041F4404101600068022400F440401190F2
:1014400001200090000401908001CDE906400620B3
:101450000890A820CDE9090404200B906846FFF706
:1014600073FD0CA90F2081E831004FF4A0500F90BC
:10147000E002109005210CA8FFF79CFC13B030BDD2
:1014800040380240007000401048016841F470018B
:1014900001600F48016841F0010101600C4A002120
:1014A0000832116002680B4B1A400260031D0A4AA1
:1014B0001A60026822F48022026005480C30016044
:1014C00002495806803908607047000088ED00E046
:1014D00000380240FFFFF6FE10300024FEE702E075
:1014E00008C8121F08C1002AFAD1704770470020AF
:1014F00001E001C1121F002AFBD1704700B58BB07B
:1015000000210122CDE9061205910091019102917D
:10151000039104910E21CDE908216946FEF75EFF93
:101520000448FFF773FA02210248FEF7DFFE0BB012
:1015300000BD00008801002010B5074C0421607830
:1015400020700648FFF78EFB607010B920780128E4
:1015500000D0002010BD0000180000200004024050
:101560002DED048B82B0FFF795FBFFF74BFFFFF7E4
:10157000B3FEFFF78DFE01223C214148FFF777FBC8
:101580004048FFF7BBFF00249FED3F9ADFED3F8A05
:101590009FED3F8A3F4D00BF04EB8400F0EE491AF7
:1015A00000EBC40005EB8000B0EE612AB0EE481AF3
:1015B000F0EE080AB0EE680A00F0CBF8641CE4B262
:1015C000072CE9D3A846344D344E4FF00009288843
:1015D000401C00B22880FA2806D13148A5F80090B6
:1015E000416981F400614161FFF7A6FF70B195ED9B
:1015F000010ADFED2C0A2C4930EE200A10EE100A09
:1016000085ED010A884201DD85ED018A5FF0000465
:1016100004EB440006EB8007B7F9060000EE100A61
:1016200004EB840000EBC401F8EEC00A08EB810073
:1016300095ED010A00F03AF8BDEEC00A641CE4B270
:1016400010EE100A072C7880E2D3B6F9260000903D
:10165000B6F91A30B6F90E20B6F90210002000F0E3
:101660007BF8CDF80090B6F94A30B6F93E20B6F9CD
:101670003210012000F070F80020FFF7FBF9A6E718
:10168000001C0240880100200060EA460000204261
:10169000000000001C00002000000020B00100201D
:1016A00000100240000070420000344380ED050A43
:1016B000C0ED060A90ED071A70EE600A80ED081A78
:1016C000C0ED070A90ED000A60EE201AC0ED091A7D
:1016D00090ED0A0A90ED012A02EE200A70EEC10A8E
:1016E00080ED0A0A90ED021A20EE812A80ED0B2A85
:1016F000D0ED030AB1EE601AB4EEC10AF1EE10FAB1
:1017000002D8B0EE410A06E0B4EEE00AF1EE10FABB
:1017100001DBB0EE600A80ED0A0A31EE800A30EE9D
:10172000020A80ED0C0AD0ED040AB1EE601AB4EEA4
:10173000C10AF1EE10FA02D8B0EE410A06E0B4EEAA
:10174000E00AF1EE10FA01DBB0EE600A80ED0C0A5F
:10175000704780EC050A704710B588B00A9C18B332
:1017600040F2FF200290002004900590082006908F
:10177000080A8DF800008DF80110100A8DF802009B
:10178000180A8DF804008DF80530200A8DF806003F
:101790008DF803208DF8074001236A4602A904480A
:1017A000FEF7B8FD08B010BD40F2FF10DAE7000008
:1017B0008801002000000000000000000102030476
:1017C00006070809E4170008000000201C000000BC
:1017D000DE140008001800081C000020EC050000C2
:1017E000EE140008000000000000000001000000EE
:1017F00010000000000000000024F40000000000C1
:04000005080001AD41
:00000001FF
